:020000040000FA
:2000000000500020E10000008DC10000C90000008FC100008FC100008FC100000000000088
:200020000000000000000000000000008FC100008FC10000000000008FC100008FC1000080
:20004000213100008FC10000F9AC00008FC1000079280000892C00008FC100008FC1000013
:200060008FC1000019AD00008FC100008FC100008FC100008FC100008FC100008FC100008A
:200080008FC100008FC100008FC100008FC100008FC100008FC100008FC100008FC10000E0
:2000A0008FC100008FC100008FC100008FC100008FC100008FC100008FC100008FC10000C0
:2000C0008FC10000153D0000044B1A68B2F5806F03D01B689B0500D4FEE7704728ED00E0BC
:2000E00008B509F009F80C4A0C4B0D498B4204D252F8041F43F8041BF7E70A480A494FF01A
:2001000000028842B8BF40F8042BFADB01F00AFEFFF7DAFF08BD00BF01E40000000000200F
:200120005C020020600200206E30002008B5052934D8DFE801F0030E252C1A2E1A480CF04A
:2001400031F91A484FF420710CF087FA0322184B1BE01178174803F019FE154B05221A703C
:200160001548BDE8084004F06FBC144B1A6092F84E3013B1002382F84E301148916C0EE012
:2001800010480CF00FF9104B01221A7008BD0F4800E00F48BDE808400CF004B90D48BDE808
:2001A000084003F0F3BD00BF24DE0000980A0020FF1C00204CDE000000000020640A0020BE
:2001C0006EDE000071DE0000B81C0020A7DE0000DFDE0000FADE00002DE9F047002580463E
:2001E000894692462E462C460AEB06035B781AF8067003EB0727BFB27FB9002D0FDB01D06C
:20020000013523E008EB0400C4EB0901124A0CF0E1F92044C4B2012518E0002D0ADC5EB1A9
:2002200008EB0400C4EB09010C4A0CF0D3F92044C4B201E04FF0FF3508EB0400C4EB090112
:20024000074A3B460CF0C6F92044C4B20236102ECAD12046BDE8F0872CDF00002DDF00008D
:200260002FDF000070B56A4C94B023782646042B17D8032B49D2012B1DD03CD8654C2023C2
:20028000009320466449654A654B00F065FC0023644A637564480123137033700CF082F8F3
:2002A00009E0052B00F08880FE2B40F0A2805F480CF078F8A9E0012004F0EEFC044670B1AC
:2002C0005B4A5448936E02F1200103EB43039BB2B2F86C2000F072FC0223337008E00220E1
:2002E00001F0D6FE53481021534A234604F076F95248202187E0022001F0CAFE4D48202111
:200300004D4A002304F06AF97BE04D480CF0B7F910B1444B00221A703E4D95F86A402B4601
:20032000002C42D195F86020082A3ED195F87422002A3AD03378032B09D1424A23462846C3
:20034000214601F083FC324B04221A7029E0022001F09EFE3C480CF025F88021364A3548A6
:20036000234604F03BF9394E394B3A481E600CF019F82146402204A80BF02EFE05F03EF80D
:200380004021024604A8FFF727FF30460BF0D0FE02948DE81100214628462F4A334601F0D9
:2003A00085FC234B2548996E2DE093F8601022462A4803F0EBFC24E029480BF0F3FF15485F
:2003C00000F028FC174B274819780131C9B202299ABF4FF480748C404FF4006422461970DB
:2003E00003F0D4FC154821460CF00CF9012333700BE0022001F04CFE21781B4803F0C6FCB5
:2004000003E00E4840210CF0FDF814B070BD00BFFF1C00200003002000000020D31E002012
:200420002D010000D21D002032DF0000AADF000090020020680A002091C10000880A00209D
:20044000980A0020461D002037DF0000D31D0020600A002042DF0000B91C002051DF000061
:2004600076DF000083DF0000BDDF0000F0B5048887B0B4F5177F0646154643D040F26B2308
:200480009C425BD0002C55D1554D564B564A28461A60214670220BF09FFD544B544A1868E9
:2004A0009B88286051681068AB8005F1200303C3128950481A80504B504A2B6640F25B73C3
:2004C0005178A5F86C304FF47063AB661378009191784B4D01915179029191790391D2795E
:2004E00046210492474A0CF075F8452801462BD94548462203F04AFCFE232B7043480BF0DD
:2005000051FF06E0882942D1414B9D4201D1FFF7A9FE404B1B78012B02D04FF4177307E037
:200520003D4803F033FC3D4802F072FB40F26B23338007E00023038003204EE0384B1B78C9
:200540008B4226D0012048E0364937480BF092FD3549364803F01AFC354936480BF08AFD84
:20056000354936480BF086FD34480BF01BFF324933480BF07FFD3249324803F007FC324B9B
:20058000234821461C802C700CF03CF8B6E78229BCE7144F29462D4803F0F8FB2A464FF456
:2005A000807138680CF016F8044629480BF0FAFE3B68002023443B6002F02AFB002CC4F531
:2005C000807501DBAC4205DB29462246214803F0DDFB02E0FFF746FEA5E707B0F0BD00BFA6
:2005E00090020020600A0020D31D0020D9DF0000E0DF0000D31E00206375727466300020B3
:20060000FF1C0020EBDF000006E0000020E00000880A0020B81C00205DE00000214B0000A0
:2006200063300020DCE00000461D0020E6E00000FDE00000B91C002083E30000001D00208D
:200640008C1D002007E10000D016002079E000008CE00000B3E0000010B50446436E9847EC
:20066000034BE06E19780022BDE8104004F0ACB95E3000202DE9F3470C4617461E46002BA1
:2006800000F0698191F8B0341BB101F595600BF095FD94F8B1346BB93B78012E84F8B134F7
:2006A000D4F8AC3403F10103C4F8AC3400F05381012500E0002594F8B7345BBB7819B542F6
:2006C00080F04981D4F8AC3494F8B82401330132052B10F8011B05F10105C4F8AC3484F8FD
:2006E000B82405D9204680210022FFF7B5FF32E194F8B634B4F8B2E401F07F0202FB03E24E
:20070000DB0184F8B6340B06A4F8B224D7D4012384F8B734B4F8B224B2F5007F36D994F89B
:20072000B13403F0F003302B30D0D4F8AC3401321E449642C4F8AC64C0F00D8108E102F095
:20074000F002302A2CD094F8B904C5EB0608C0F50073984528BF984620447919424600F210
:20076000BA400BF05FFBD4F8AC3494F8B9244344424484F8B924C4F8AC3445440022D1B2E5
:20078000414502F10102FAD3B54262D2B4F8B224D4F8AC340132934294F8B124CFD35EE06E
:2007A00094F8BF26002ACED194F8BE26A2B97A5D691C1202581CB142A4F8BA26C4F8AC0475
:2007C00045D2795C02330A43C4F8AC3401230235A4F8BA2684F8BE36B4F8BEA6BAF1010FFD
:2007E000B1D1B4F8BC06B4F8BA36C5EB06081A1A904528BF904620441FFA88F979194A46C9
:2008000000F2C4600BF00EFBB4F8BC26D4F8AC344244B4F8BA1692B24B4491424D44C4F88F
:20082000AC34A4F8BC260ED16318002284F8BFA683F8C426B4F8B234023B5B1A9BB2A4F86B
:200840001037A4F81237012384F80E377BE70D4679E7B4F8B2240132934297D27BE002F032
:20086000F003502B6FD006D8302B38D0402B45D0202B6DD118E0702B65D002D8602B62D022
:2008800066E0902B4FF0010246D0B02B60D184F8992294F8BB3494F8BA24204643EA02231F
:2008A000A4F8B43403214BE094F8BB342BB12046822104F2BB42FFF7CFFEE18A012384F844
:2008C000993204F11800C901254A234603F086FE0823002184F8603020460A4636E004F20D
:2008E000BA43C4F8083794F8B9342046A4F80C370023A4F812370BF06BFC29E0012384F82F
:20090000993294F8BA2494F8BB34204643EA0223A4F8B434052113E084F8992294F8BB3420
:2009200094F8BA24204643EA022394F8BC24ADF804308DF80620A4F8B434022101AA05E06E
:2009400004F2B44202E0204684210022FFF784FE012384F8B034002002B0BDE8F08700BFF3
:200960006509000010B590F8383002468BB100F22C74022380F8603020460BF0BAFF204691
:2009800007F04EF82046BDE81040002134220BF023BB034B03481978BDE8104004F014B890
:2009A000191F00201000002030B504460523002580F86030012385B0A0F86830A0F89C521C
:2009C00080F8385000F595600BF0F8FB0E4A04F1740302920D4A84F87452009304F22C7524
:2009E0004FF400730392214604F2A6220193284606F09CFF2846B4F8282704F5E36105B099
:200A0000BDE8304006F0C8BF75060000110A000013B50C468DF80720042A3BD8DFE802F0EE
:200A2000200303032D001C4B224619781B4803F0CBFF032384F8603004F1180003F010FEA0
:200A4000204601210DF10702FFF706FE20460BF0D7FB637D012B1DD12046FFF7A5FF19E0E7
:200A6000062381F86030012381F874320C4B224619780A4803F0A8FF0CE0B1F84E372BB9C7
:200A8000012381F8743201F174030B6704F1180003F0CAFD02B010BD201F00201000002063
:200AA0001C1F002038B51D4C2578002D34D103F01FFF1B4B18701B4B187003F019FF1A4B59
:200AC000187003F015FF194B187003F011FF184B187003F00DFF174B187003F009FF164B68
:200AE000187003F005FF154B187003F001FF144B187003F0FDFE134B1870134B187003F008
:200B0000F7FE124B187012480BF0F2FD1148294603F082FF0123237038BD00BF241F0020AD
:200B2000231F00201A1F00201C1F00201F1F0020211F0020221F00201D1F0020191F0020CC
:200B40005E300020201F00201B1F00201E1F0020A00A002010000020F8B51F4613780446F0
:200B60000E46154633B34FF4EC6200210BF034FA294604F10C000BF0AAFBBDF818200123E4
:200B800000256375A4F8A422A4F8683004F595606766E666A4F89C5284F838500BF00EFB29
:200BA00084F87452FFF77EFF034821460BF0C1FD2846F8BD8220F8BDA00A00207FB5044653
:200BC00090F8600003281ED8E38204F174032367002384F89932237DC4F8141743F0020388
:200BE000A4F828272375084604F5E36669460BF08CFE9DE80F0086E80F00044B0448197871
:200C0000224603F0E1FE002004B070BD231F00201000002090F860300246082B07D1092370
:200C200080F86030024B0348197803F0CDBE70471F1F0020100000202DE9F3418DF80710DA
:200C400040F2A741038806468B42154600F01283B3F5956F0CD240F282418B421ED040F28A
:200C600099418B4200F03687002B40F09D8057E040F2C6418B4200F0E58305D840F2B9410A
:200C80008B4200F06A838FE040F2D3418B4200F0F284B3F59C6F00F0F08585E0C44B9DF8A1
:200CA00007201B789A4207D1C24B28461D600A2385F860300BF0A4FABF4B9DF807201B78A2
:200CC0009A4204D1BB4B28461D60FFF76DFEBB4B9DF807201B789A4225D0B94A9DF807301C
:200CE0001178994200F0B782B64B9DF807201B789A4200F02283B44B9DF807201B789A427C
:200D000000F09083B14B9DF807201B789A4200F0A284AF4B9DF807201B789A4200F09D855C
:200D200040F282433CE0A34B1D60B5F8A432A5F8543795F87432012BCFD10023A5F89C32FD
:200D40009C4F3C68B4F89C32B3F5D17F00F08B8157D8B3F5CD7F00F00A8132D840F2971213
:200D6000934200F0D980B3F5CC7F22D2002B00F08E80B3F5CA7F40F06A8294F87432002BDB
:200D800040F0B3803B6893F860300A2BA5D0914B00221868904B197803F016FE40F2994389
:200DA0003380012000F040BF00233380032000F03BBF00F0BF8040F29912934200F0C88074
:200DC00045E240F29D12934200F01481B3F5CF7F09D240F29B12934200F0D780B3F5CE7FF0
:200DE00000F0E18033E240F29F12934200F01E81B3F5CF7F40F20C81B3F5D07F00F0248105
:200E000025E240F2B312934200F0A281B3F5DA7F20D240F2A712934200F05A81B3F5D47F73
:200E200009D2B3F5D27F00F0348140F2A512934200F03E810BE240F2A912934200F0658147
:200E4000B3F5D47F40F2528140F2AB12934200F06D81FCE1B3F5DD7F00F0BC8109D8B3F559
:200E6000DA7F00F0848140F2B712934200F09081EDE1B3F5DF7F00F0CD81B3F5E57F00F045
:200E8000CE8140F2BB12934240F0E181B1E1228A102384F8783202B1023202F10C03B4F871
:200EA000542002B102321344B4F85C2002B102321344B4F8402002B102321344B4F84820BC
:200EC00002B102321A44C4F87C2204F5207004F521710BF060F994F88432042B05D9204656
:200EE00081210022FFF7B8FBB1E1204694F878120BF0B6F920B14FF4CA73A4F89C323CE7EF
:200F0000204604F5207194F884220BF0B9F940B140F29713A4F89C3294F87432002BEFD1AE
:200F200030E7204600210BF09BF940B14FF4CC73A4F89C3294F87432002BF2D122E7204618
:200F400006210BF08DF940B140F29913A4F89C3294F87432002BF2D114E720461F4906229F
:200F60000BF08EF940B14FF4CD73A4F89C3294F87432002BF1D105E7204603210BF070F918
:200F800040B140F29B13A4F89C3294F87432002BF2D1F7E62046217D0BF062F900B34FF4C9
:200FA000CE73A4F89C3294F87432002BF2D1E9E6201F0020A40A0020231F00201C1F0020AD
:200FC0001F1F0020191F0020211F0020221F00201D1F00201C0F00201E1F00201EE1000097
:200FE000E18A2046090A0BF03BF940B140F29D13A4F89C3294F87432002BF1D1C2E6204674
:20100000A17D0BF02DF940B14FF4CF73A4F89C3294F87432002BF2D1B4E6204600210BF075
:201020001FF940B140F29F13A4F89C3294F87432002BF2D1A6E62046217C0BF011F940B1B4
:201040004FF4D073A4F89C3294F87432002BF2D198E62046E168228A0BF012F940B14FF46D
:20106000D173A4F89C3294F87432002BF1D189E6237D5A0704D494F91430002B5BDA5EE0EC
:20108000204600210BF0ECF840B14FF4D273A4F89C3294F87432002BF2D173E6204694F89C
:2010A00040100BF0DDF840B140F2A513A4F89C3294F87432002BF1D164E62046E16BB4F804
:2010C00040200BF0DDF840B140F2A713A4F89C3294F87432002BF0D154E6204600210BF0BF
:2010E000BFF840B14FF4D473A4F89C3294F87432002BF2D146E6204694F848100BF0B0F81B
:2011000040B140F2A913A4F89C3294F87432002BF1D137E62046616CB4F848200BF0B0F860
:201120000028A8D040F2AB13A4F89C3294F87432002BEFD126E6237D5B0642D42DE0204602
:2011400000210BF08DF840B140F2B313A4F89C3294F87432002BF2D114E6204694F854102B
:201160000BF07EF840B14FF4DA73A4F89C3294F87432002BF1D105E62046216DB4F85420F5
:201180000BF07EF80028D6D040F2B713A4F89C3294F87432002BEFD1F4E520460BF04FF80C
:2011A000072384F86030201D4FF4A0610BF055FA04F595600BF002F84FF4E573A4F89C3246
:2011C0002DE0204600210BF04BF840B14FF4DD73A4F89C3294F87432002BF2D1D2E5204612
:2011E00094F85C100BF03CF840B140F2BB13A4F89C3294F87432002BF1D1C3E52046A16D32
:20120000B4F85C200BF03CF80028C6D04FF4DF73A4F89C3294F87432002BEFD1B2E594F87A
:20122000993204F10408012B07D140460BF027FA48B12046FFF7EEFC05E040460BF01FFA7E
:201240000028F2D19EE504F595600AF0B7FF0023A4F89C3241E5BF4B1D6095F86030092BF7
:201260007FF442AD95F87432012B61D10023A5F89C320BE0B84B9DF807101B788B4200F003
:201280003F84B64B1B788B4240F2448440F2E512B04F3C68B4F89C32934212D0B3F5F37F19
:2012A00001D22BB137E01BD0B3F5F87F2AD032E02046E0210AF0D4FF48B140F2E513A4F85F
:2012C0009C3294F87432002BF2D100F02EBC204600210AF0C5FF48B14FF4F373A4F89C32F5
:2012E00094F87432002BF2D100F01FBC20460AF0A6FF201D4FF480710BF0AFF94FF4F8733C
:20130000A4F89C3294F874322BB9201D0BF0B7F9002800F00A840023A4F89C3238680AF098
:201320006FFF386801210DF10702FFF795F9DBE42A468B4803F048FBD6E4864B1D6095F825
:201340007432012B7FF4D7AC95F86030082B7FF4D2AC0023A5F89C320BE07F4B9DF8071095
:201360001B788B4200F0CC837C4B1B788B4240F2ED8340F2D221774A14681746B4F89C32CC
:201380008B4214D001D84BB148E040F2D32293421BD040F2DE2293422FD03FE02046C0214C
:2013A0000AF05EFF40B140F2D223A4F89C3294F87432002BF2D1D3E3204600210AF050FFAE
:2013C00040B140F2D323A4F89C3294F87432002BF2D1C5E320460AF032FF012384F8383029
:2013E00004F595600AF0EAFE201D4FF4A0610BF034F940F2DE23A4F89C3294F8B0343BB17B
:2014000004F595600AF0DAFE002384F8383005E0201D0BF034F90028F2D1A1E30023A4F88D
:201420009C3268E44B4B1D6095F87432012B7FF469AC95F86030082B7FF464AC0023A5F805
:201440009C320BE0444B9DF807101B788B4200F05783424B1B788B4240F2938340F21622CF
:201460003C4B1C689846B4F89C72974200F084800ED8B7F5047F48D001D817B3E6E040F234
:2014800013239F4252D040F215239F425CD0DDE040F21B239F4200F09F80B7F5077F08D273
:2014A000B7F5067F78D040F219239F4200F08380CCE000F0A08040F225239F4200F0B0803A
:2014C000C4E0B4F88C228223053284F87832C4F87C2204F5207004F521710AF05CFE94F8BE
:2014E0008432042B07D9204681213A46FFF7B4F8A4F89C7206E4204694F878120AF0B0FE45
:2015000040B14FF40473A4F89C3294F87432002BF1D140E3204604F5207194F884220AF058
:20152000AFFE40B140F21323A4F89C3294F87432002BEFD12FE3204600210AF091FE88B1C3
:2015400040F21523A4F89C3294F87432002BF2D121E300BFA40A0020201F00201A1F00204E
:2015600010000020204694F886120AF079FE40B140F21623A4F89C3294F87432002BF1D15B
:2015800009E3B4F88C122046090A0AF069FE40B14FF40673A4F89C3294F87432002BF0D106
:2015A000F9E2204694F88C120AF05AFE40B140F21923A4F89C3294F87432002BF1D1EAE2BA
:2015C0002046D4F88812B4F88C220AF059FE40B140F21B23A4F89C3294F87432002BEFD1AC
:2015E000D9E2204694F898120AF03AFE40B14FF40773A4F89C3294F87432002BF1D1CAE27F
:2016000020460AF01CFE201D4FF4A0610BF025F804F595600AF0D2FD40F22523A4F89C321C
:2016200094F89932271D012B0AD138460BF027F804F595600AF0C2FD002384F86A3005E0AB
:2016400038460BF01CF80028EFD1A4E20023A4F89C32FFF757BBC84B1D6095F87432012B0B
:201660007FF457AB95F86030082B7FF452AB0023A5F89C320BE0C14B9DF807101B788B42A4
:2016800000F03E82BE4B1B788B4240F29682BA4B1C689846B4F89C72B7F5157F7DD011D850
:2016A00040F24F239F424AD0B7F5147F01D20FB3CEE040F251239F4252D040F253239F42D7
:2016C0005CD0C5E040F257239F4200F08580B7F5167F04D240F256239F426ED0B8E040F20C
:2016E00059239F4200F0898040F262239F4200F09980ADE0B4F88C22A223043284F87832EB
:20170000C4F87C2204F5207004F521710AF043FD94F88432042B08D9204681213A46FEF752
:201720009BFFA4F89C72FFF7F4BA204694F878120AF096FD40B140F24F23A4F89C3294F82D
:201740007432002BF1D142E2204604F5207194F884220AF095FD40B140F25123A4F89C3223
:2017600094F87432002BEFD131E2204600210AF077FD40B140F25323A4F89C3294F874320F
:20178000002BF2D123E2204694F886120AF068FD40B14FF41573A4F89C3294F87432002BEA
:2017A000F1D114E2B4F88C122046090A0AF058FD40B140F25623A4F89C3294F87432002BFC
:2017C000F0D104E2204694F88C120AF049FD40B140F25723A4F89C3294F87432002BF1D16C
:2017E000F5E12046D4F88812B4F88C220AF048FD40B140F25923A4F89C3294F87432002B48
:20180000EFD1E4E120460AF01AFD201D4FF4A0610AF023FF04F595600AF0D0FC40F26223C4
:20182000A4F89C3294F89932271D012B0AD138460AF025FF04F595600AF0C0FC002384F8BD
:201840006A3005E038460AF01AFF0028EFD1BEE10023A4F89C32FFF75CBA474B1D6095F8BC
:201860007432012B7FF45CAA95F86030082B7FF457AA0023A5F89C320BE0404B9DF80710A9
:201880001B788B4200F03C813D4B1B788B4240F2B081394D2C68B4F89C32B3F5267F00F01F
:2018A0009C8011D840F2932293425FD0B3F5257F01D223B309E140F2952293426ED040F22B
:2018C000972293427AD000E140F29D22934200F0B58009D840F29A22934200F08F80B3F519
:2018E000277F00F09C80F0E040F2A222934200F0B68040F2B322934200F0D180E5E094F807
:20190000982294F89A12530043F03003DBB2012984F8783204BF43F0010384F87832B4F873
:201920008C12D4F894320B440AB9023300E00433C4F87C3204F5207004F52171D4F87C2231
:201940000AF029FC94F88432042B05D9204681210022FEF781FEB8E0204694F878120AF06D
:201960007FFC78B140F29323A4F89C3294F87432002BF1D147E100BFA40A0020201F00203E
:201980001A1F0020204604F5207194F884220AF077FC40B140F29523A4F89C3294F87432E8
:2019A000002BEFD12FE1B4F88C122046090A0AF057FC40B140F29723A4F89C3294F87432A3
:2019C000002BF0D11FE1204694F88C120AF048FC40B14FF42673A4F89C3294F87432002BB9
:2019E000F1D110E12046D4F88812B4F88C220AF047FC40B140F29A23A4F89C3294F8743255
:201A0000002BEFD1FFE094F89832E3B1204600210AF026FC40B14FF42773A4F89C3294F8AB
:201A20007432002BF2D1EEE0204694F886120AF017FC40B140F29D23A4F89C3294F874322E
:201A4000002BF1D1DFE02046D4F89012B4F894220AF016FC40B140F2A223A4F89C3294F8BA
:201A60007432002BEFD1CEE020460AF0E8FB201D4FF4A0610AF0F1FD94F898222AB96C4B9B
:201A8000E06E197802F0A0FF18E0012A16D104F595600AF093FB40F2B323A4F89C3294F858
:201AA0009932271D012B03D138460AF0E8FD05E038460AF0E4FD0028F6D1A4E004F595601B
:201AC0000AF07CFB002384F86A300023A4F89C32FFF726B9574B9DF807101B788B420FD06D
:201AE000554B1B788B423FF62BA9544B1B788B42FFF426A9524B186802F066FFFFF720B9D9
:201B0000504B0A221B68022083F860200022A3F89C2289E0494B1B788B42FFF4B7AB484B9E
:201B2000186802F051FFFFF7B1BB3B6893F860300A2B3FF4F3AB424B00221868424B197870
:201B400002F042FF40F2A743FFF72AB93B4B1B788B42FFF40EAC3A4B186802F035FF08E4B3
:201B60003B6893F86030082B7FF4C5A8344B00221868354B197802F027FF40F2B943FFF726
:201B80000FB92E4B1B788B42FFF468AC2C4B186802F01AFF62E4D8F8003093F86030082B07
:201BA0007FF4B0A8264B00221868274B197802F00BFF40F2C643FFF7F3B8204B1B788B42A1
:201BC000FFF465AD1E4B186802F0FEFE5FE5D8F8003093F86030082B7FF49BA8184B00225C
:201BE0001868194B197802F0EFFE40F2D343FFF7D7B8124B1B788B42FFF44BAE104B186840
:201C000002F0E2FE45E62B6893F86030082B7FF487A80B4B002218680B4B197802F0D4FEA1
:201C20004FF49C63FFF7BCB802B0BDE8F08100BF5E300020201F00201A1F00201B1F0020B1
:201C40001C0F0020A40A00201E1F002070B51E4690F860300446082B20D190F86A5001219B
:201C6000F5B980F86A10B0F86810C0F88822023189B2A0F86810A0F8861210460AF058FAF2
:201C8000084BA4F88C0284F8986284F8995219782246054802F098FE284670BD812070BDB3
:201CA000084670BD211F00201000002070B51E4690F860300446082B2BD190F86A5001219B
:201CC0004DBB80F86A10B0F868109DF81830023189B2A0F86810A0F8861280F89A32C0F863
:201CE000882210460AF024FA049BA4F88C02C4F894329DF81430C4F8906284F89832074B62
:201D000084F8995219782246054802F05DFE284670BD812070BD084670BD00BF1D1F0020CA
:201D2000100000202DE9F041764C86B0236876485B6801219847236801210A461B687248ED
:201D400098470BF096FB01F003FA01F09BF900F0C1F901F0D3F900F091F96C4B0120186074
:201D6000A3F58043043B186003F5005324331B680AF0B9FA0BF081FB00F0FAFC00F098FC9E
:201D80000AF069FC00F0D8FD02F0BAFD41F234200AF002FC00F014FF02F0E4FE5C480AF082
:201DA00001FB00214BF2AC725A4801F0EFFF5A480AF0F8FA07F08EFA584C594D10F0040FC0
:201DC00014BFA046A84607F08DFA01280CBF27462F4607F07FFA10F0020F14BF26462E46D4
:201DE00007F078FA10F0080F08BF2C463A463346009441464B4801F0C9FF00214A4802F025
:201E00000BFE02F0B5FB0AF0FCFB02200AF06BFA464801F0BBFF464B464C18680AF0C2FA13
:201E2000454801F0B3FF454B18680AF0BBFA444801F0ACFF2168434801F0A8FFE469A047AB
:201E400020B1A0470146404801F0A0FF0A200AF0A2FA002608F0D2F904A80821039600F064
:201E600091FD9DF817309DF81640384D384F43EA042404AB03CBD7F82C8028606960022041
:201E80004AF6CD31C04721460320C04714210120C04708227B6B04A90B209847BB6A03A977
:201EA0000120984703992B4801F070FF2A4B21462A481C8001F06AFF294A2B6813606B6823
:201EC000536007F0B5FE3146264802F0A5FD02200AF009FA3146244802F09EFD23480AF038
:201EE00086FB00F03FFD01200AF0FDF902F020FD044600F02DFD14F0FF0FF7D100F0B2FF36
:201F0000F4E700BFD8010010004003400C40094039E100005CE1000073E1000032E1000068
:201F200036E1000087E10000E4000020BAE10000C0DD0000F4DD0000C1E10000CCDD0000CA
:201F4000C8E100006EDE0000CFE100006630002088DD0000F2E10000D216002003E2000001
:201F6000602700206001002020000020B0DC000070B505880446772D30D07E2D3FD0002DE6
:201F80004DD102F0B5FC294B1870294B1D601D462B68284A264E52F823204AB126480021A0
:201FA000C154936880209847336801333360EFE7224A1370772320E01F4AD256002A12DB29
:201FC0001B4A136801331360194B1C4A1B6812789342F1DB1A4B1B68002BEBD0184A0023AF
:201FE0001360134AEFE7114A00201178114A52F8232002F0E9FC30B97E23238013E00B4B02
:202000001B788B420FD10A4B0B491A688B5C03F07F038B540A4A136801331360D0E70023CA
:202020000380032070BD012070BD00BF5F300020AC0A00204400002060300020251F0020C3
:20204000A80A0020094B1A780023934204DA084951F82310814207D106490748CA5C62F074
:202060007F02CA5402F0F0BC0133EEE7251F002044000020603000202000002008B500F0B5
:2020800075F8024B00221A7008BD00BF261F0020024A13781843107000F082B8261F0020B0
:2020A000034A137823EA0000107000F079B800BF261F002008B5064B04201B685B6998471E
:2020C000034B04201B685B6B98470128F8D108BDB8010010F0B591B00BF0CBF90746FFF7FE
:2020E000E9FF1C4B4FF4A0601B68DB6998471A4B01221A60194B1B689A07FBD56C46184D37
:202100000AF037F9174800F0B1FF0FCD0FC40FCD0FC40FCD0FC495E80F0084E80F00ADF1E4
:20212000040555F8044F631C0BD00F4E204633689B6B9847336820469B694FF400519847E1
:20214000EFE727B911B0BDE8F0400BF096B911B0F0BD00BFB80100102820086028200840B3
:20216000B8DC000030000020B401001010B5094B1A686AB90122084C1A6023680620DB6B10
:20218000984723680720DB6B9847044BC0221A6010BD00BFB00A0020B4010010A0200240B1
:2021A000074BC0221870074B1A60C20744BF402243F8102C830742BF034B80221A60704746
:2021C000271F0020A02002409020024008B5034B1B685B689847C0F3804008BDB401001078
:2021E00030B9064B1868C0F3403080F001007047012806BF024BD86800207047C020024066
:20220000B40A002030B9044B1868C0F3803080F00100704700207047C0200240802870B5D7
:20222000144602D0812815D070BD01239340164A164D13602B6820469B6B98472B682046B3
:2022400000211B68124A9847E0B21249BDE8704000F03EBF0D4D81B1012393400A4A204633
:2022600013602B689B6B98472B6820461B680021074A98472B681B6B01E02B685B6B2046ED
:20228000BDE87040184700BFE0200240B401001000400720992200000D2838B51CD1144C33
:2022A00020460AF0ECF908B3204604210AF0D5F9104B1D68C5F3403525B900F043FAE5606E
:2022C000A06038BD00F03EFAA368C01AE060BDE838400948FFF7B6BE0E2807D1BDE83840B9
:2022E0004FF480414FF0805200F0F6BC38BD00BFB40A0020C0200240F8DC000073B5194B13
:2023000000241868184B4FF4801501908DF800408DF8014001A81D60042100F0B9F8134E75
:2023200008B9356017E06846022100F0CFF8356088B19DF80030EF2B01D0C22B0DD19DF8EA
:202340000100A0F11103012B09D9143801288CBF0020012004E0FF2002E0204600E001207C
:2023600002B070BD20E20000A02002409020024037B5052302AC04F8043D124B4FF4801554
:202380001D6000F0C7F82046012100F081F8A0B10DF10700012100F099F820B90A4B4FF4B6
:2023A00080121A600BE09DF80730DB07F0D4064B4FF480121A60012001E0034B1D6003B094
:2023C00030BD00BFA02002409020024037B50A210F4800F0B1F80F4B14201B680E4DDB6BA4
:2023E00098474FF48014AB2302A82C6000F8013D0A4B01211C6000F04BF808B1FFF7B8FF61
:202400002C60FFF77BFF431E5842584103B030BD00093D00B401001090200240A02002408D
:2024200037B5FFF7A5FFC0B102A8B92300F8013D0C4B4FF480141C60012100F029F80A4BB7
:202440001D461C600A24FFF759FF30B1013C14F0FF04F8D14FF480132B6000F0CBF803B06C
:2024600030BD00BFA02002409020024008B5064B02201B685B6B9847012803BF034B1868AB
:2024800000F00100002008BDB801001078200840F7B504460D46FFF7E9FF064688B12544A8
:2024A000AC420ED0084F14F8011B3B684FF080405B6898473B684FF08040DB6801A998471F
:2024C000EEE7304603B0F0BDC4010010F7B504460E46FFF7CBFF0546B0B12644B44213D083
:2024E0000B4F4FF080403B6800219B68984708B9054609E03B684FF08040DB6801A998477A
:20250000019B04F8013BE9E7284603B0F0BD00BFC401001007B5FFF7A9FF38B1054B01A978
:202520001B684FF080401B699847F6E703B05DF804FB00BFC4010010F0B5254B07461B6859
:2025400085B05B6902200E469847214D02202B685B6B984701280446F7D12B684FF4807064
:20256000DB6998471B4B1C601B4B1B689B07FBD51A4A082413684FF0804023F00F03136059
:20258000174B03221A60174B00221B68009701941D6815491346A847144B09221B68009639
:2025A0005D6C4FF080404FF0FF332146A847104A136843F0020313600A4B4FF080401B6835
:2025C00003A91B6998470028F6D105B0F0BD00BFB80100102820086028200840140000407F
:2025E00020000040C4010010006CDC02B40100100400004010B5174B4FF480701B681B6AF1
:202600009847154B01221A60144B1B689B07FBD5134C082023689B6B984723684FF4005174
:202620009B6908209847236809209B6B984723684FF400519B690920984723680A209B6B10
:20264000984723680A209B694FF40051BDE81040184700BFB8010010282008602820084032
:20266000B401001008B5064B04201B685B699847034B04201B685B6B98470128F8D108BDEC
:20268000B80100100749084A0B68126809688B42F8D1DB01054903EB52620023C1E900231F
:2026A000704700BF082009400C2009406002002010B51A4B00200021C3E90001184C04209C
:2026C00023685B6B9847012801D0FFF7CBFF23680020DB699847134B01221A60124B1B6867
:2026E0009B07FBD5114A124C1368204623F4807323F0010313600F4B0F491B681B689847A3
:20270000042323600D4B31221A6040F2212243F8342C0B4B01221A6010BD00BF60020020D9
:20272000B801001028200860282008400C00014000000140C8010010002100043C00014087
:202740000400244308B5FFF79DFF024BD3E9000108BD00BF6002002010B50AF08AFE034B1A
:202760001C6808B90AF089FE204610BD082009402DE9F0410AF07DFE1D4F1E4B0124002514
:202780004FF480723D601C4E1C601A604FF480321A60336880461B68284623219847336888
:2027A00020461B6824219847336802201B6825219847124A136843F4E0231360104B1D604B
:2027C00007F026FA0F4B00F5007018600E4B14201C600E4B3C601B681B699847B8F1000F0F
:2027E00003D1BDE8F0410AF048BEBDE8F08100BF0000244304200940840100100020094088
:20280000082009401C200940A0022443B0010010431E012B10B501D904281AD110F00102B2
:202820001CBF0C4B196010F002031CBF0A4C216010F004001CBF094C216012B1084A01214A
:20284000116013B1074B01221A6010B1064B01221A6010BD182009401C2009402020094049
:2028600080022443A0022443C0022443014B1868704700BFC40A002008B50AF07EFF154B79
:20288000186009F07DFD144B1B686BB1134B4FF480721A6007F0BCF900F2052020F4FF70FC
:2028A0000F4B20F0010018600E4B1B683BB10E4B00221A60094B01221A6002F0D1F80B4B76
:2028C0001B6833B10A4B00221A60044B4FF480321A6008BDC40A0020A000244304200940BB
:2028E0001C2009408000244380022443C0002443C0022443820742BF034B01221A60C307F4
:2029000001D50AF0BABD7047000C084008B50AF0B0FD074B1A68012A09BF064A00231A604D
:202920000223002814BF184643F0010008BD00BF000C084051E5CC1A034A044B1A600122B8
:20294000C3F8002C704700BFFFFF0F0000000840024A034B1A600122DA607047FFFF0F0090
:202960000000084010B5FFF7D1FF0446FFF7F0FF034B01221A602046BDE81040FFF7BABFA0
:20298000040100430A4B13F8012FFF2A04D1094A9342F8D1084B00E0084B19440138994279
:2029A00004D001390A7800F8012FF8E7704700BFC7FF0100CFFF0100F0120050C8FF01005A
:2029C00038B50C4B02201B685B699847094D02202B685B6B984701280446F7D12B684FF4AA
:2029E0000070DB699847044B1C60044B1B689B07FBD538BDB8010010282008602820084037
:202A000008B5064B02201B685B6B9847012803BF034B186800F00100002008BDB801001006
:202A20006C20084008B5084B15201B685B699847064A136823F4FE6323F00203136040F257
:202A4000F272034B1A6008BDB0010010381000404410004037B5284CFFF7B2FF2368274DA2
:202A6000DB6827489847FFF7DDFF2B680320DB6B9847244B08221A602B68122200921D6C23
:202A80001F48022103221323A84723681C485C681D494FF4E1326023A0471C4B14221A6072
:202AA0001B4A1C49136843F01003136040F2011240F201330868002808BF134602F1804200
:202AC00002F62F72136040F2F272134B1A600B687BB102F1804202F646021368152043F005
:202AE000500313600D4B1B681B6903B0BDE83040184703B030BD00BFD0010010B401001085
:202B00000010004090200240006CDC02341000402C100040C80A002044100040B0010010E2
:202B200038B50546FFF76CFF18B11E4B1B681A07FBD4032D03D01C4B1B68002B30D1FFF748
:202B40005FFF30B1194B1A481B68DB689847FFF769FF184C4FF4007023681B6A9847032D37
:202B600009D123684FF400709B6A984723684FF400701B6B9847104B01221A600F4B1B68E1
:202B80009B07FBD5032000F08DFA022000F08AFA132000F087FABDE83840122000F082BA74
:202BA00038BD00BF18100040C80A0020D001001000100040B80100102820086028200840CD
:202BC00010B50AF056FC0446054800F04FFA054B00221A601CB9BDE810400AF04EBC10BD8D
:202BE00050000020C80A002010B50446FFF708FF08B9FFF72FFF044B2146BDE810401B6854
:202C00000248DB69184700BFD001001000100040124B10B51860124C124B40B91861236885
:202C20004FF400709B6A984723681B6B08E002221A6123684FF400705B6A98472368DB6AB3
:202C40004FF400709847084B01221A60074B1B689B07FBD5BDE81040FFF7FCBEC80A002014
:202C6000B801001050000020282008602820084008B5FFF7C5FE18B1024B1868C0F3C0005C
:202C800008BD00BF1810004008B5FFF799FE40F2F2710B4B0B4A1B68116013F0500F0AD18D
:202CA00008BD094B09481B681B699847084B1B680BB1C0B29847074B1B68DB06F1D508BDA0
:202CC0004010004044100040D001001000100040C80A0020181000402DE9F347402300246E
:202CE000164601930746884600940AF0C2FB454B01221C60444B1A604FF480721A604FF454
:202D000080321A60414B20461B683F211B6801349847042CF6D100243C4B20461B683F2130
:202D20009B6801349847032CF6D1394D2B68FFF70FFE384809F0DFFC04462CB1A3680BB128
:202D4000032098472468F8E77B1C0DD0324BBA0013431C60314B46F000521B6838461B6801
:202D6000214642EA08029847DFF8DCA000242C4ECAF80040336807209B699847684607F09A
:202D800059FD00F025FA09F037FB264A264F1368382023F0030313609368DFF8B09023F03A
:202DA0000F03936033684FF001089B6998473C60012007F061FD1D4B3C60C9F80040C3F876
:202DC00000801B4B1B4A1C605C601B4BCAF800401C602B681368194823F003031360184B2E
:202DE00003211B685B689847164B3C60C9F80040C3F800802B6833689B6B984702B0BDE8E7
:202E0000F08700BF0000244304200940840100102C200940CC0A0020001A4442B401001023
:202E2000B801001000100940401009408801044340012243242208400800094000400340FF
:202E4000D8010010181009400C40094020042243034A136823F00403136030BF704700BF40
:202E600010ED00E0F8B50AF004FB01F0A3FD002840F0D5806F4809F03EFC0646022546B13D
:202E8000736823B19847A84228BF2846C5B23668F5E70AF072FC684B04461B6863B1674BC6
:202EA0001B681B1A022B04D4A3F28F23002B03DA0126B54228BF354601F07AFC28B301F053
:202EC0007FFC0646FFF73EFC361A002E40F3A780FFF7CCFC5A4A00EB4623121BDA4200F133
:202EE000A280012085421BD16FF00702121BDA4202D504F1080106E004F58031CA1A11EAE7
:202F0000220138BF1946022005E0012D034607D1022004F58031FFF77BFCFFF799FF7EE0BD
:202F2000022D7CD110B12846194601E02846611EFFF76EFC3F4809F0DEFB0446062544B196
:202F4000A3680BB1022098472369246825EA0305F5E73C4EFFF7FCFC05F0060715F0040F0C
:202F600018BF346027B1384B38461B689B69984700F02EF9002007F07FFC344A39201368AC
:202F800023F003031360936843F00F0393602E4B1B689B6998472E4B0020186018602D4B92
:202FA000186006F0B5FC062F02D1022006F01AFE294C2A4D2A4F2B6823682A4823F00303AC
:202FC00023603B6803215B6898471F4B1B689B6B98472B6806F09AFD234B00221A603B6866
:202FE000204801215B689847236843F003032360012333602B6806F0B9FD07F007FC09F075
:20300000BFF9FFF7A5FC0B4809F075FB044624B1E36803B198472468F9E70AF02EFABDE875
:20302000F8400AF02ABA022D3FF45EAF012DF6D15AE700BFCC0A00208002244318200940B6
:2030400071FDFFFF0C400940B8010010001009404010094020042243242208402C20094008
:20306000D801001000400340800104430146014809F05FBBCC0A00200146014809F045BBFA
:20308000CC0A002010B5054809F032FBBDE81040034B03201B6820211B681847CC0A002000
:2030A00084010010431C10B504460BD0064B4FF4C0421B6800211B689847044BA40023433D
:2030C00000221A6010BD00BFB4010010001A444238B504460D460AF0CCF90123054AA340C4
:2030E0001360054B43F8245018B9BDE838400AF0C4B938BDE0200240D00A00200023064A55
:20310000002142F823100133202BF8D1034B10201B681B69184700BFD00A0020B00100107B
:2031200038B5094B00241D681D600123A3402B42E0B204D0054B53F8243003B19847013497
:20314000202CF2D138BD00BFE0200240D00A00201FB50023029302A84123039307F06AFBE4
:20316000042006F041F8032810D00420032106F015F8042006F038F80328FAD100900021B5
:2031800005484FF040521C230AF052F902A807F0A7FB05B05DF804FB00A00C4007B5412335
:2031A000002268468DE80C0007F044FB012006F01BF8012803D0054B986B06F027F868464C
:2031C00007F08EFB03B05DF804FB00BF4800001013B54123002468460193009407F02AFB0F
:2031E0000320214605F0DAFF012005F0FDFF18B1044B986B06F00AF8684607F071FB02B08F
:2032000010BD00BF48000010034A00211368197219711B6813607047CC0D002008B507F072
:203220009FFB20B1024B5888831E5842584108BDD40D002037B5FFF7F1FF0446E0B910484F
:2032400001A907F095FB012814D10AF096FA05460B4B5A881C46022A04D16488A31E5C4274
:203260005C4107E00AF089FA6FF03F035B1BC342EED4F2E7204600E0012003B030BD00BFD0
:20328000D40D002008B50346B32994BF0A46B4220248194608F0C6FD002008BD560E002005
:2032A00070B506460AF0E5F8104C0546104B16B11B68236014E01E68002116F1804041F163
:2032C000000122680023994208BF904207D20AF054FA084B084A18601368013313602660E6
:2032E0001DB9BDE870400AF0C8B870BD940D002004300440D00D0020500B002000B589B05D
:2033000002A8182140F602020AF040FA154B02A81A689DF81A30117961F305038DF81A303C
:20332000517961F387138DF81A3092799DF81B3001A962F347038DF81B300B4B07930123EE
:203340008DF8163007F014FB012806D102A807F04FFB431E5842584100E0002009B05DF80F
:2033600004FB00BFA40000207800002038B50B4B00201D461C682379032B02D02379022B84
:2033800006D1074B1B7813B9064801F05DFB012024682B689C42EED138BD00BF9C0D0020B4
:2033A000281F00200C02002013B507F0FBFB044607F0D6FA50B1064801A907F0D9FA0128C6
:2033C00004D1638803F44063002BFAD002B010BD010001040B2810D1082A1AD1C9B10E4B15
:2033E000013913F8012C0D4801F8012FA3F12902904203F1FF33F4D107E00C2807D1042A40
:2034000007D131B1064B1B680B6000207047012070470220704700BF040E0020D40D002039
:20342000980D002007B5FFF7F9FEB8B109F02BF80028FBD10B4801A907F09AFAFFF7EEFE3B
:203440000028FBD142F20242074B5B88934205D042F207401B1A5842584100E0012003B08A
:203460005DF804FB01000104D40D00200B2808B514D1082A14D199B10A4A01F1080313F85F
:20348000010D8B4202F8010FF9D1FFF7C7FE40B1FFF7C8FFFFF7CEFE032008BD012008BD84
:2034A000022008BDFB0D002010B507F061FC012823D008F0E8FF04460028FAD1FFF7B2FF05
:2034C00007F0B6FBFFF784FE0D4B5C800D4B1A79022A08BF1C710C4B1A79022A04BF002232
:2034E0001A710A4B1A79022A04BF00221A71084B1A79022A04BF00221A71012010BD00BF8E
:20350000D40D0020540B0020E40B0020740C0020040D002038B507F02BFC012801D1012024
:2035200038BD08F086FFFFF779FE0028F7D11A4A1A4B517901245D7964F383015171184930
:20354000882064F383055D711960D8801360154B4D79D0801A605A7964F3830564F3830254
:203560000B604D71C8805A71D880FFF717FE0AF01CF9A04201D0002038BD0B4B18780030BF
:2035800018BF012007F0BCFAFFF7B8FE0128F2D1BDE83840FFF74EBE540B0020E40B002041
:2035A000740C0020040D0020281F002073B50C46072800F29E80DFE800F004131F22254E98
:2035C0005384012906D1FFF7A5FF012814BF0320002091E0002940F08E80FFF765FF6EE0BA
:2035E000A1F10B030F2B00F28680444BCCB29A7BA24264D09C7366E0404B598663E03F4B33
:20360000198660E031F0070175D13C4AC4F34000137E64F30003DBB243F0020360F3820357
:2036200003F0870361F3C7131376537EC4F3800461F3C7135376324B19781C708C4242D1D8
:203640003048138B01A9438007F092F900280CBF0320002050E031F001034CD1C8B24BE018
:2036600001F115031A2B46D80C26274BF20053F836101D468C4203DC1344244A136002E08C
:2036800016F1FF36F1D207F06BF9002834D01023ADF8043005EBC6031A79597902F03F0247
:2036A00061F387128DF806204FF000029B7901A863F3470269468DF8072007F059F9002011
:2036C0001AE00E4B1977FFF7A9FD0028F7D0FFF7A9FE01280CBF002403240AF074F800201A
:2036E000FFF7DEFDFFF7A6FD01280CBF2046032002E0012000E0022002B070BDD40D0020FE
:20370000281F0020C40D002018DD0000A400002073B50C46002974D0102874D8DFE800F076
:20372000091015181B3033373B6A6E73736163656800FFF773FD003018BF0120206002E014
:20374000324B9B7B236000205EE0304B5B8EF9E72E4B1B8EF6E700232C4A0B60137E03F02A
:2037600001030B60127E520744BF43F002030B60274B1878002847D00B6843F00403E1E795
:203780000020086040E0234B1B681B68DAE71F4B93F91C30D6E7FFF741FD28B9FFF7BAFE8A
:2037A000012816D1064600E000260023019340F2034301A86946ADF8043007F0D9F8012856
:2037C0000CBF9DF8025080250EB1FFF76DFE6BB201E06FF07F03236080330CBF032000204F
:2037E00012E00B23AEE71A23ACE76FF01403A9E70523A7E7084B1B785BB2A3E7074B1B7826
:20380000A0E7022000E0012002B070BDD40D0020281F0020A4000020291F00203A1F002012
:20382000F0B589B00646FFF7F9FC28B9FFF772FE012857D1054600E0002509F09EFF0746A8
:2038400008F021FE012804460AD109F096FF6FF01F03DB1BC342F3D425B1FFF725FE01E062
:2038600010B1F9E7022040E042F6014202A8182109F08CFF1E4BF6B28DF817600693049445
:203880001C4C9DF81430217823F00F03003118BF012101208DF8143007F064F902A801A96D
:2038A00007F066F8264650B9012411E0BDF80A3003F440632BB9002AF8D1FFF7C9FA327865
:2038C000F4E7BDF80A40A0B2B0F5105418BF01243078003018BF012007F058F925B1FFF7D3
:2038E000E3FD01E0012000E0204609B0F0BD00BF560E0020281F00202DE9F341424C06466C
:2039000088462568FFF78AFC10B10020FFF7C8FC09F033FF07462B79022B03D02B79032B47
:203920006DD106E009F029FF384BDB1BC342F2D4F4E727683B7A032B02D8FFF765FC5EE042
:203940003D7AEDB2A5F108044445F6DC304607F10901224608F066FAEA1CBB5C2C4E3370A2
:20396000BB5C2C4A03F07F0313706B1DF8582A4B0190DDF804801F68B8F1404F15460BD98D
:2039800009F0FBFE254B1B68C3F17E4303F57203C34248BF07F1FF3721496FF4BF72D1F85F
:2039A00000E012EB08024FF0FF3343F10003B2EB0E004FF0000263EBEE71121847EB01037F
:2039C00018491002C1E90023190241EA1261002343F6095207F01CFF134B1860134B1B785E
:2039E0004BB93178042049B289B206F0DDFB2978032006F0D9FBFFF707FC204600E0002005
:203A000002B0BDE8F08100BFCC0D0020FAFEFFFF291F00203A1F0020500B0020D00D0020D7
:203A20007016002068020020980D0020281F002010B5FFF7F3FB60B9FFF76CFD01280AD006
:203A4000BDE8104008484FF48731084A002300F0C5BD002400E004460020FFF721FC002C92
:203A6000EED0FFF721FDEBE7A40D0020313A000070B52F4C2F48FFF7F9FA07F025F82046EC
:203A80000021902208F0A8FA002190222A4808F0A3FA00219022294808F09EFA0021902238
:203AA000274808F099FA274E274B34601C60274C0025204629468022756008F08DFA42F67A
:203AC00001036F21E176A621217742F202011422A273B922E2731E4A2380626101230322D3
:203AE0002276637384F8373002221A4B62761980218BFF222661A27659801A71FFF70AFDAE
:203B00000128044611D1144807F0F0F82046FFF7C7FB12484FF48731114A2B4600F05EFD8B
:203B20001048294600F078FF00E02C46204670BD540B002064000020E40B0020740C0020C0
:203B4000040D00209C0D0020CC0D0020D40D00202A1F0020C40D002080DD0000A40D0020E9
:203B6000313A00000C020020034B1B68002B14BF01200220704700BF0C0F002038B5064BAB
:203B800002201B6800241D46044B1B685B689847201845F1000138BD04800240CC0100107E
:203BA00008B5064B04201B685B6B9847012803BF034B1868C0F34000002008BDB801001051
:203BC0003C20084038B5038804461BB3B3F5847F03D000230380032038BD114B1B788B42B9
:203BE0001BD1104D2B682BB1FFF7C8FF2B68984700232B600C4B40F201401B689B6A9847FF
:203C00000A4B01221A600A4B1B689B07FBD50948FFF732FA4FF484732380012038BD00BF43
:203C20005A0200200C0F0020B80100102820086028200840A800002038B50C4B04201B6811
:203C40005B699847094D04202B685B6B984701280446F7D12B6840F20140DB699847044B5C
:203C60001C60044B1B689B07FBD538BDB8010010282008602820084070B51F4B1B688BB138
:203C800000231E4A995C39B10021D1541C4A02EBC30393E8030070BD0133042BF1D100206B
:203CA000014670BDFFF77CFF08B9FFF7C5FF154A154B116814460B406BB9144B01221A60A7
:203CC00018680028FCD102464FF4807105F0B2FA0F4B01221A6009F0CCFB06462368DB07E2
:203CE000FCD5FFF74BFF05460C460EB909F0C5FB2846214670BD00BF0C0F00203B1F002020
:203D0000700200200880024001000080F09F0240A802504238B50E4D00240E4A2C601368EE
:203D2000312023F0010313600B4B1B685B699847204622464FF4807105F07CFA01232B6010
:203D4000064B224619780648BDE8384000F03CBEA80250420C800240B00100105A0200207D
:203D6000BC00002010B5074C2378802B08D100F0BFFD207000210448BDE8104000F04CBE98
:203D800010BD00BF5A020020BC0000200FB407B504AA52F8041B0448019200F035F803B0FA
:203DA0005DF804EB04B07047CC0000201FB5084C8DE80300114602A81A460294CDF80CD030
:203DC00000F022F8009B00221A7004B010BD00BFADC5000070B505460C46102C07D92B686F
:203DE000686808491022984750B9103CF5E734B12B6868682246BDE870400249184720464B
:203E000070BD00BF74E200002DE9F04F80468FB0069107920026069B1B78002B00F05F837F
:203E2000069B1C4613F8012B1AB9069B9C4203D10FE0252AF5D1F8E7069BD8F80400E51ACB
:203E40000699D8F800302A469847002840F02A832E442378002B00F042836378611C002BFF
:203E600000F03D8300240A4611F8013B2B2B11D006D8202B11D0232B12D144F00804F2E74E
:203E80002D2B04D0302B0BD144F01004EBE744F00104E8E744F00604E5E744F00204E2E790
:203EA000A3F1310108290DD8134600251A4613F8011BA1F13000092811D80A2202FB051502
:203EC000303DF3E72A2B09D1079B01321D68191D002D0791B8BF44F0010400E000251378D7
:203EE0002E2B1CD15178531CA1F1300009280ED8194600270A780B46A2F13000092801F12C
:203F000001010FD80A2303FB0727303FF2E72A2906D1931C079A111D0791176802E013461D
:203F20004FF0FF371A786C2A09D15A786C2A02D144F080040AE0013344F060040BE0682AE4
:203F400009D15A78682A03D144F02004023302E0013344F040041A78642A3CD01FD8462AA1
:203F600048D00DD8252A5AD003D8002A00F0B78257E0412A4AD0452A53D144F4424450E060
:203F8000582A31D004D8472A4BD144F4A13448E0612A38D0632A44D144F4A06441E06E2AD6
:203FA0003AD007D8662A22D027D3672A28D0692A11D036E0732A2CD006D86F2A11D0702AFE
:203FC0002FD144F440742CE0752A07D0782A28D144F4C85425E044F4245422E044F4106421
:203FE0001FE044F488541CE044F4B24419E044F4007416E044F4844413E044F4024410E088
:2040000044F481340DE044F4C1340AE044F4E13407E044F4806404E044F4E06401E044F4E6
:20402000C0640133069304F4E063B3F5806F00F0AA8116D8B3F5807F2BD0B3F5407F7FF438
:20404000EAAE079BA04914F4804F03F104029F4818BF08460DF1330107920F461A6800239B
:20406000C5E1B3F5C06F08D0B3F5E06F00F03182B3F5A06F7FF4CFAE00E2D8F80030D8F8F8
:204080000400934901229847002840F00B820136C1E6002FACBF24F01004012714F4005336
:2040A000039304F0E00337D0402B17D008D8DBB1202B2AD1079B1A1D079293F9002017E073
:2040C000602B11D0802B20D1079B073323F0070303F108020792D3E900230AE0079B1A1DA6
:2040E0000792B3F9002003E0079B1A1D07921A68D317002A73F1000109DA524263EB430300
:20410000CDE900234FF0010933E000220023CDE900234FF000092CE0402B16D007D8CBB14C
:20412000202B20D1079B1A1D07921A78EEE7602B10D0802B17D1079B073323F0070303F17F
:2041400008020792D3E90023E1E7079B1A1D07921A88DBE7079B00211A1D07921B681846CB
:20416000CDE90001D5E700220023CDE900234FF0000904F4C053B3F5805F0CD0B3F5C05F31
:2041800033D0B3F5006F4FD1DDE900230DF1360ACDE9042304E0DDE900230DF1360A15E0E1
:2041A000DDE9042313433AD0DDE904010A22002307F02EFBDDE9040130320AF8012D0023F8
:2041C0000A2207F025FBCDE90401E9E752EA030125D002F0070130310AF8011DD10841EA5D
:2041E0004371D8080A460346F0E7384B14F4804F0DF1360A344908BF1946DDE9002352EA5B
:2042000003000CD002F00F00085C4FEA131E0AF8010D100940EA037002467346EFE70DF155
:20422000360BCAEB0B0B03E00DF1360A4FF0000B41F6080241F208035F4502EA04028CBFA7
:20424000CBEB070700279A4202D1002F08BF012741F608018A4207EB0B030DD1DDE90001F5
:2042600050EA010208D01B4914F4804F1A4A4FF0020C18BF0A4602E04FF0000C62460399A5
:20428000A1B1B9F1000F0AD104F0060102290AD00629124904BF4FF0010C0A4606E04FF02A
:2042A000010C0F4A02E00F4A4FF0010C63449D428CBFED1A002514F0010922D1E30613D542
:2042C0002F444D461DE000BF3FE2000050E2000072E2000064E2000061E2000069E20000A1
:2042E00067E20000C6E1000040462946CDF80CC00092FFF76FFD009ADDF80CC0002840F0C1
:20430000D180BCF1000F0DD01146D8F800306246D8F80400CDF800C09847DDF800C00028BF
:2043200040F0C0803C465E44102CD8F800300DD9D8F804006C491022CDF800C09847002880
:2043400040F0B080103CDDF800C0EDE75CB1D8F8040065492246CDF800C09847DDF800C058
:20436000002840F09F80D8F80030D8F8040051465A4666449847002840F094803E44B9F19A
:20438000000F79D073E0079BD3F800A01A1D0792BAF1000F09D05346994699F800200133A5
:2043A000002AF9D1CAEB090903E0DFF840A14FF00609002F02DBB94528BFB9464D458CBF8C
:2043C000C9EB0505002514F0010405D140462946FFF700FD002865D1D8F80030D8F8040001
:2043E00051464A46984700285CD14E443EE052EA030E0ED002F00F0E10F80EE04FEA131C1A
:2044000001F801ED4FEA121E4EEA037E72466346EDE70B467F1A01BF3022012701F1FF3316
:2044200001F8012C03377822BD4203F8012C4FF0300203F8022C88BFED1B4FF0230298BFB7
:20444000002514F00104A3F1030903F8032C04D140462946FFF7BEFC20BBD8F80030D8F83F
:20446000040049463A469847E0B93E4424B140462946FFF7AFFCA8B92E44CCE4079B012D71
:2044800003F104021B688CBF05F1FF35002514F0010407928DF8203008D140462946FFF7CA
:2044A00099FC10B14FF0FF301AE02E44D8F80030D8F8040008A9012298470028F2D16F1CCF
:2044C0002CB140462946FFF785FC0028EAD13E44A1E4079B1A1D1B6807921E609BE4304641
:2044E0000FB0BDE8F08F00BF84E200006BE20000F8B50388064615462BB14A2B15D000232F
:2045000003800320F8BD174808F0F5F804462CB1201DA16808F076F82468F8E7124B01223E
:204520001A704A2333800120F8BD8829FBD10D4808F0E1F80446002CF3D0231D9D420ED121
:204540000848214608F0E1F8084B62691F681A60A2691D460AB1E06990472F60E1E7246888
:20456000E9E700BF100F00203F1F00201C0F002010B5064B002406481C7008F0B9F8214680
:20458000BDE81040034800F047BA00BF3F1F0020100F0020D400002070B50446E3610B4B71
:2045A000049D1B786561A26143B1094D094B2E68201D2B6008F026F82E6000E0A160214616
:2045C000BDE87040044808F0B4B800BF3F1F00201C0F0020D4000020100F002013B5034C04
:2045E00024680094FFF7D8FF02B010BD1C0F002070B5094B05461B783BB1084C084B26688C
:204600000430236008F007F826602946BDE87040044808F08EB800BF3F1F00201C0F002090
:20462000D4000020100F002070B5094B05461B783BB1084C084B26680430236007F0F4FF2E
:2046400026602946BDE87040044808F072B800BF3F1F00201C0F0020D4000020100F0020E7
:2046600010B5084B04461B781BB1043000F0B2F801E0C36003612146BDE81040024808F0A5
:2046800044B800BF3F1F0020100F002010B50E4C236813B90D4A136010BDFEF753F82168CC
:2046A00091E80C001A44131A8A6842B192E812002144091A8B4228BF0B469268F5E71844BA
:2046C000024B186010BD00BF140F0020180F0020014800F0B9B900BFE4000020F8B5038859
:2046E00005462BB1592B09D0002303800320F8BD1E4A136059232B800120F8BD872920D040
:204700008229F7D1194F00263C68002CF2D0204607F0B5FF90B1E0688821224600F054F91E
:2047200050B9E060A3680EB1B36000E03B600023A360FFF7ABFFE5E7FFF7CAFF2646A4680F
:20474000E3E70A490B680BB90B60D3E7D868904201D19B68F7E70B6099680029CAD0C868BC
:2047600090420ABF89680B469960F5E7140F002010B50446FFF7ACFFE3680B4A4BB113687D
:204780003BB1A34203D1094A1268DA6007E09B68F6E7064B1B68E36013681460A360BDE8F8
:2047A0001040FFF773BF00BF140F00201C0F0020024B1868003018BF01207047140F002045
:2047C000024B186808B1024B18687047140F0020180F002010B50B4A04461368984206D1B5
:2047E0008368136008E09A68A24203D01346002BF9D103E0A2689A60FFF748FF0023A36022
:20480000E36010BD140F002038B5836804460D469BB10A4804600220A07304F10C009847B9
:204820000238012801D9832D05D120462146BDE8384000F005B80123A37338BD1C0F0020A4
:204840002DE9F8431C4A0446156889462B4690461A4E3768A34204D00BB11B68FAE7BDE83F
:20486000F88334B3A37BABB10023A37345B1AC4204D028468721224607F0E7FE2D68F5E7A0
:20488000A3683BB14C4505D0346004F10C0083212A469847D8F800309C4203D12268064BA6
:2048A00005E0134623B11A68A242FAD122681A603760BDE8F88300BF200F00201C0F0020A1
:2048C00010B5094B00221A70084B1C685CB1E37B3BB101230022A373E27320468221FFF735
:2048E00093FF2468F2E710BD421F0020200F0020024B1878421C1A70704700BF431F002067
:20490000064B8A221A70064A00231370054A1370054A1360054A1360704700BF431F0020CC
:20492000401F0020411F0020200F00201C0F00202DE9F0411A4D2B780BB1FFF7C1FF194CB6
:2049400022783AB3184E0C213378184F5943781817F8018001334768806803F01F03013A54
:204960003370227068B9124B1E689EB12B780BB1FFF7A6FF304641463A4607F066FE36683F
:20498000F3E7B8F1810F04BF0123837341463A4607F05BFE2B7820781844BDE8F08100BF64
:2049A000421F0020411F0020401F0020240F0020200F0020024A034B10781B78184470470D
:2049C000411F0020421F0020F0B50B4E3378202B0FD00A4C0C252478094F1C4404F01F0411
:2049E0006C4301333D19A86039556A6033700020F0BD0120F0BD00BF411F0020401F002022
:204A0000240F002038B5034C256807F01EFE256038BD00BF1C0F002010B50A4609490C6808
:204A2000234683420DD00BB11B68FAE748B1046008600121817383818121BDE81040FFF7DF
:204A4000E1BF10BD200F002038B1837B013B012B9FBF024A0123C37313707047421F00208C
:204A600010B5084C206858B100232360816843689847236823B1BDE81040186808F079BE70
:204A800010BD00BFA410002038B505880446672D09D0792D2ED0002D32D1FFF729FF1B4B2D
:204AA00018701B4B1D601B4807F012FE431C01D167231DE00A28164B07D01A687E2AF2DC07
:204AC000511C1960144B9854EDE7196800254A1C1A60114A0D4B555428461978FFF774FF87
:204AE0000E4B852118682A46FFF76EFF20B97923238009E0852907D1054B00221A60D2E738
:204B000000230380032038BD012038BD63300020B0100020A8100020C51F00201C0F002007
:204B20000D2810B5014615D00B4C23782BB90B4807F0BAFD48B9012306E00A2805D1074816
:204B400007F0B2FD08B1002323700548FFF77CFF012010BD002010BDC41F0020A8100020CC
:204B6000F400002008B505480549802207F095FDBDE8084003480021FFF74EBFA81000206A
:204B8000441F0020F40000202DE9F3410446154D00910E4690461F460195234612480321EB
:204BA000202207F0E8FD01282B4616D12A6804F11001107020462A68023250F8044B8842B1
:204BC00042F8044BF9D11868089B86744361099B80F813800777836100E0002002B0BDE859
:204BE000F08100BFB8100020E426002070B506460B4D0C4B2B602C680B4B9C420BD2237888
:204C000033B1A27CA01C3146D20807F0D9F820B120342C60EFE7002070BD012070BD00BFDC
:204C2000B8100020E42600204427002013B5084C802203460092019406480321202207F0FE
:204C40009AFD08B9206800E0002002B010BD00BFBC1000200026002010B50C4A0C4B13601F
:204C600013680C498B420DD2197849B1411C02D0997C814204D148F2FE015C888C4202D094
:204C80002033ECE70023184610BD00BFBC100020002600206026002010B50C4A0C4B136024
:204CA00013680C498B420DD2197849B1411C02D0997C814204D148F2FE015C888C4202D153
:204CC0002033ECE70023184610BD00BFBC100020002600206026002037B504460F4D802394
:204CE0000093019523460E480521122207F043FD01282B460ED12A6804F110011070204644
:204D00002A68023250F8044B884242F8044BF9D1186800E0002003B030BD00BFB410002056
:204D200084260020F7B50546204C802300930E46174601941E48032120222B4607F01BFD7E
:204D4000012830D12A46236805F1100118702368023352F8040B8A4243F8040BF9D120681E
:204D6000C77416B90123037505E0002303753146183008F035FD23680E48012199740223EF
:204D80004370FF220023027043808380C38003818372C17202736B7B4373EB89C381FFF736
:204DA0009BFF206800E0002003B0F0BDBC10002000260020D416002013B5084C802203462E
:204DC0000092019406480521122207F0D4FC08B9206800E0002002B010BD00BFB4100020D2
:204DE0008426002038B50546C8B10D48022200244270FF230122C27244808480C4800481DF
:204E0000847203730370EB7B43732B8AC381FFF7D3FF044A106008B107F0D1FC2C7038BD0A
:204E2000D4160020B410002010B50E4B0E4C236020680E4B98420ED203784BB1037D3BB903
:204E4000183005F09BFF18B1074B1868FFF7CAFF23682033EBE700F0E9FABDE8104004485D
:204E600007F0D9BB00260020BC10002060260020442700202DE9F84348F2FE030A880546DB
:204E80009A42884621D00B78FF2B1ED01B4B0024A1461F461A4A1A603E681A4A964218D25C
:204EA00033787BB1B37C012B0CD148F2FE0372889A4207D04046B11C07F08EFC484524BFB7
:204EC0003446814620363E60E6E70120FFF7C4FE04464CB92C806C80AC80EC802C816C81DE
:204EE000AC81EC81BDE8F883A31C123453F8042BA34245F8042BF9D1BDE8F883BC10002052
:204F0000002600206026002010B507F040FB044607F03DFB054B24029A68A4B22044B0FB58
:204F2000F2F302FB130000EB520010BDE825002073B52F4C01F00AFB00F08EF80021602293
:204F40002C4807F049F800212046F82207F044F8294B20221A70294B18221A704FF4A06313
:204F60002360274B40262671A360FFF7CDFF42F21073236148F2FE03314640F2FF26002511
:204F8000E06025751F4C2A46238065802B46A580E580204600950195FFF7F6FD20461A4996
:204FA00007F011FC294601222046FFF7BBFE4FF480732046E38126806580A580E58025818B
:204FC0006581A581FFF788FE4FF40073204626806580A580E58025816581A581E381FFF70C
:204FE0007BFE0A480C2102B0BDE8704007F00ABBE8250020E4260020E1260020E026002052
:20500000C0270900D416002060270020442700202DE9F04105460D480F46904607F06BFBF5
:20502000044688B1012D04D8094807F09AFB034601E0084B1B682846666839464246B047CC
:20504000204607F095FBEBE7BDE8F081B4110020041100200011002008B50B4808F0C7FB66
:205060000A4807F045FB0A4B0A49186804F0C4FE094808F0BCFB094807F03AFBBDE808405F
:20508000074807F035BB00BF2401002020110020200100201BC80000040100200411002007
:2050A000B411002008B5034640B1054A5968106808F058FABDE8084007F0E3BB08BD00BF3C
:2050C00020010020014807F016BB00BF2011002008B507F0D8FB014638B1044B186808F0F0
:2050E00028FA003018BF012008BD08BD200100202DE9F0418046FFF7E5FF002604463746C7
:205100009CB194F82450B5420AD3404604F10801EA0806F055FE18B9802D08D02E46274678
:20512000204607F076FB0446EAE73C4667B1084807F0E1FA844207D00548214607F0E5FAA3
:205140000348214607F004FB2046BDE8F08100BF2011002038B5044600283ED04368002BD8
:205160003BD01E48214607F0D0FA6368586807F0C2FA054630B14368A34207D0284607F060
:20518000F7FAF6E704F1080002F05CFA63682946586807F0BAFA6368586807F0ACFA28B94E
:2051A00063680F4A5968106804F0DEFE21460D4808F041FB29460C4808F03DFB0B4A204624
:2051C0001368013B1360FFF76DFF04F108010246BDE838400320FFF71BBF38BD20110020A7
:2051E0002001002024010020300100200011002010B5044680B1406870B107F07CFA20B160
:205200004068FFF7A7FF6068F7E7044B2146BDE81040186804F0A8BE10BD00BF2001002052
:205220002DE9F84F074610468946904607F02BFB834610B90020BDE8F88F3846FFF758FF03
:20524000044660B1FFF72EFF014628B14046102206F0B6FD002859D02046FFF77BFF2D4BB0
:205260001A689A46032AE5D02B4E5946306808F060F9054668B92B4630685946042204F0BB
:20528000E9FD05460028D5D000236860036007F02FFA224808F0BBFA04460028CAD0204817
:2052A000214607F055FA1F4808F0B1FA834620B921461A4808F0BFFABCE744606868594665
:2052C00007F037FADAF800306560013330682946CAF8003004F05EFE3B4604F1080507F1E7
:2052E00010062A4618685968083303C2B3421546F7D100210C2284F8249004F1180006F04D
:205300006BFE022039464246FFF782FE2046BDE8F88F00BF0011002020010020240100207D
:20532000201100203001002038B505460D4807F0E2F90446A0B1AC420ED12146094807F055
:20534000E4F92146084808F076FA211D01200A46BDE83840FFF75CBE204607F009FAE8E746
:2053600038BD00BF041100200401002038B50546084807F0C0F9044648B1201D29461022C6
:2053800006F01EFD18B1204607F0F2F9F3E7204638BD00BF04110020F8B505460F46FFF77F
:2053A000E5FF044640B9134808F031FA0446F0B11148214607F0CCF92B46261D05F1100E19
:2053C000324618685968083303C273451646F7D137B104F11400394608F002FA002300E0D1
:2053E00001232377002029462A46FFF711FE2046F8BD00BF040100200411002038B50A4878
:2054000007F079F9044600255CB1251D284601F0D1F808B1437C23B9204607F0A9F90446A0
:20542000F2E7284638BD00BF0411002010B50A4807F061F9044670B1237F43B904F11400C2
:2054400005F09CFC18B12046FFF76EFFEFE7204607F08EF9EEE710BD0411002037B5124B53
:20546000124D1C782B796A79C4EB032313449BB2ADF80630BDF8063005F1080118442022D6
:2054800080B207F0CCF9BDF8062004F12801294492B207F0C4F910B140BA80B201E04FF6AD
:2054A000FF7003B030BD00BF4D200020682700202DE9F041264F274E3D7827482835AB196C
:2054C0005C780223E40007349C423DDBE9187218715CDFF88080012931D002D3632902D031
:2054E00011E001332EE0037018461B4C02F046FDD0B13B7822782833134443445B781344DB
:205500000233237021E001F0C001802905D0C02905D0402913D1037006E0037007E098F844
:2055200018200370FF2A02D10120BDE8F08104200221EA1805F002FD0220BDE8F08152784E
:2055400002321344DBB2BFE703700020BDE8F0814D2000206827002053200020F0B5C57833
:20556000124A0D44EDB2D57083780F0A3B44DBB293704478BB4254700678167005D2601CA3
:20558000C0B2507008B901361670C9B28D420CDA0133DBB2054993703BB94B780133DBB2A1
:2055A0004B7013B90B7801330B70F0BD5C27002010B5084C014620681430FFF7CFFF064AA2
:2055C000236811781975517859759178D2789975DA7510BD602B00205C27002008B5FFF714
:2055E000A7FC05F093FD07F057F900230E49002221F813200133142BF8D10C49002311444B
:205600003032B2F5F07F81F82530F6D1084A4FF480611180074A00211A442033B3F5A07F8C
:205620001182F7D108BD00BF4C2D0020642B0020E4160020782D0020F0B5344D2B88013357
:205640009BB2B3F5FA4F28BF4FF480530022304C144494F8256026B15EBA248AB6B2B4420D
:20566000EDD03032B2F5F07FF1D1294C2B8004F5F077002294F8256023468EB1072E09D1C9
:205680003AB194F8266092F826309E4288BF224600E022463034BC42ECD11346002A33D0B1
:2056A000022283F825201B4A5982147800F110061C7654785C769478D2789C76DA76002229
:2056C0001A755A759A75DA7583F8272083F82220102283F823202A881D4652BA1A8202469A
:2056E0004024DC831C8401249C8383F82640032483F824402C4610685168083203C4B24284
:205700002546F7D11846F0BD1046F0BDE4160020642B00204F2000202DE9F041124F3D7893
:2057200005B3DFF84C8005F12703B8F80040A34203DB0023A8F8003013E00C4EA4F128023C
:2057400005F12801641BA4B206F128003144521B06F0DEFBA8F80040283C23123371747183
:2057600000233B70BDE8F0814D20002068270020542700200023064A32F81310814203D117
:20578000002122F8131070470133142BF3D170474C2D00202DE9F74FA24E04283468A24F68
:2057A00000F06F82A149A24DA24A03280D6015608A4615D194F8253003F00F03032B08D193
:2057C000A38B002B40F074869B4B08221A7000F065BD022B40F06C86002305F8073CB3E352
:2057E00002287AD1954A00231370954A3B801380944AD3780133DBB2D37063B993780133FA
:20580000DBB293703BB953780133DBB2537013B913780133137094F8253003F0FD02052AA5
:205820000DD194F826300133DBB2782B84F8263040F03E86002384F8253000F039BE002B78
:2058400000F03686A28B7C48002A3DD094F82620511E84F82610002A40F02A8694F82720A4
:20586000082A04D0591E01290AD8052A08D1002384F825308023037002F092FA00F01CBD46
:20588000042A9CBF0321914003F00F0394BFC9B230210132013B84F8261084F82720072B50
:2058A00000F20686DFE813F04C0308000A00C3040406C3040406C304002242E304230370F5
:2058C00002F06EFA00F024BD03F00F03032B40F0EF850823037000F0E1BC052811D15A4BE7
:2058E0001B681B8A002B00F0E3850C3D1560544A0023138033603B804F4B08220D601A70E2
:20590000BDE115F83C3C3C3D03F0F003602B40F0CF852B796A791B0239889818884200F324
:20592000C785283213443B802B7AFF2B00F0C085464EAB1D3360464C404B00221A70227061
:20594000AA799846BAB901232370FFF7B1FD012800F0AE8503D3022800F0A6850BE098F896
:20596000003003F128022A4432605278083303EBC20388F800303748FFF758F9002840F053
:20598000B2803448FFF718FA002840F0AC802A7E304BFF2AA3F1180360D048F2FE00198BC6
:2059A00081425BD01989814258D079B9598969B9998959B9D98949B91B8A3BB9698A264BA1
:2059C00021B9998A11B9DB8A002B47D0298B224B79B9598B69B9998B59B9D98B49B9198CBF
:2059E00039B9598C29B9998C19B9DB8CB3F5807F34D03B88B3F5A06F04D9022000214FF408
:205A0000A06205E0EB79012B06D800210A46032005F094FA00F048BD0F4A013BD37100F05C
:205A200043BD00BF602B0020542700205C2B0020A427002058270020502B00204D20002008
:205A4000742D00204F200020582B0020542B00204E200020802700206827002048F2FE0375
:205A60002989994240F02485298BA14B81B9598B71B9998B61B9D98B51B9198C41B9598CA8
:205A800031B9998C21B9DB8CB3F5807F00F01085FF2A00F00D859748FFF7A8F802460028FA
:205AA00040F0068501200221B2E725D9B9F13A0F78D02CD9B9F13B0F00F0FA84B9F13C0FB9
:205AC0006CD123788C4998073BD5580666D443F040030B70FFF7ECFC012800F0E98433D377
:205AE000022800F0E1843268DFF83CB292F80090B9F12B0FD9D134E0B9F1060F00F01681C6
:205B0000B9F1110F6FD0B9F1000F47D104E0B9F12C0F00F0CD8441E02378D9073ED4764A33
:205B200043F001031370FFF7C3FC012800F0C084D6D298F8003003F128022A44CBF80020C2
:205B400008E043F00203C4E798F8003003F128022A4432605278083303EBC20388F8003034
:205B6000C1E7237803F0040000F0FF01B0B9624A43F00403137098F8002002F128032B44EC
:205B8000D87810B104202A3242E7CBF800305B78083202EBC302594B1A70A4E7042001219A
:205BA000521B35E706F057FE4FF6FF73984240F07F8498F800302833E85C01F085FF98F8E9
:205BC00000302833EA18E85C517805F095F9012801BF0023494A3B8013703B88002B00F0ED
:205BE000678400F061BCFFF797FDEB8D85F8069053B96E8D002E00F05B84414B414D2B60EF
:205C00003B4BB3F828800BE006F02BFE4FF6FF73984240F04D84ECE7238A33B920342C60C3
:205C20002C68394B9C42F7D315E09E42F6D1638A0BB19845F2D123682BB963681BB9A368A6
:205C40000BB9E3685BB131482146102206F0B8F80028E3D103E0012004210022D8E63B88C9
:205C60002B49303B3B8000230B602A4902202A4A08702A49CAF800200A60294A138002F0C4
:205C80008FF8274B1A88002A00F0128402F13003174C9BB23B80283B19126371194B083228
:205CA0001B6852BA2171197DA2850022E2851A8AE17122855A8A11216285A17104F11805BF
:205CC0000FCB85E80F0004F108002946FFF7D2F8144B04F13C021A6006F0C3FDC04380B24B
:205CE00008B1E085DAE34FF6FF73E385D6E300BF68270020802700204E2000204D200020A1
:205D0000782D0020582B0020B82E002070270020602B0020502B002098270020582700209A
:205D2000742D00205C2B0020542B0020FFF7F4FC85F8069006F092FD4FF6FF739842AE4C53
:205D400040F0B683B4F82AB0BBF1000F00F0B083238D002B00F0AC83A84EB44696F8259049
:205D6000B9F1000F11D0328A5A450ED1728A9A420BD1A348314610228DE8081006F020F86C
:205D80009DE80810002800F0F5809E4A30369642E4D195F8352002F03F02022A08D10022C2
:205DA000994931F81210594550D00132142AF7D195F83520904B520700F17A83142283F80A
:205DC00035203C223A80502283F8342093F8332093F8314093F82F0083F82F2093F83220DA
:205DE00093F82E1093F8306083F82E20013093F82D2083F82D4093F82C40C0B283F83210DF
:205E000083F8312083F82C6083F8304083F8330060B90131C9B283F8321039B90132D2B2EA
:205E200083F8312012B9621C83F830202B8D6A8D734C2A856B8504F1100594E80F0085E873
:205E40000F0020462946FFF715F812E3002421466A4A92F8250018B9302404FB01C413E09C
:205E6000072809D13CB192F8266094F82600864288BF144600E0144601310A2902F130023D
:205E8000E7D1002C00F01483604A638214605C4B032284F8262084F82420042284F8232061
:205EA0000FCB84E80F005A4B01201A78002622765A7884F8250062769A78DB78A276E37656
:205EC00095F82C30A083237595F82D3084F82260637595F82E3084F82760A37595F82F306C
:205EE000A4F810B0E375FFF763FB95F8343003F0F002502A24D91A093346053A9200E918DF
:205F000091F83C00E0B1012801D1013316E002280FD191F83D0004280BD191F83E2091F8BE
:205F20003F3043EA0223402B28BF4023E383238406E0E91891F83D1011B10B449342DEDB82
:205F400010222D4B83F835202B4B93F8352042F0020283F83520022283F83C20042283F8CF
:205F60003D20002283F83E20402283F83F203A80602242E2254B95F835101E60254B11F0FC
:205F8000040F344618709B4603D086F825002022E1E13B8809F00F09A3F12802164BB9F1F4
:205FA000020F93F834304FEA1313A2EB83039BB23B8003D101F03F02122A05E0B9F1010F86
:205FC00003D101F03F02022A26D00BB98B0723D0AA8DB38A9A4204D1074BDA8DF38A9A4219
:205FE0001AD0880740F10282B9F1010FA8D0B9F1020F40F0FB81A7E768270020642B0020EE
:2060000070270020442D00204C2D0020602B00204F200020502B0020C90654D5B18B00296D
:2060200051D006F11800FFF799FAB24B95F8301093F800E0B04A8E4545D192F8311093F839
:2060400001C08C453FD192F83200997881423AD192F83320DB78934235D1F37696F82730AA
:2060600086F818E086F819C0B1761BBB96F8243096F8261096F82200591AA1EBD001C9B2B5
:206080005FFA81FE1EF0800F96F82330084418BF4942A3EB930318BF5FFA81FE03EB0E022B
:2060A000C0B2D3B286F8233003EBD00386F8220086F82430914B01221A7096F8243086F8FC
:2060C00026300023B38396F82510DFF8309201F00F03013B072B00F2EB81DFE813F0080014
:2060E00025008300400162017C018701320199F80020824BD2070FD5032286F82520388839
:2061000040221A700022B283002800F0C48042221A70FFF74DFABEE095F8353003F03F03F0
:20612000022B40F0C5810BE799F80030DB074ED595F8353003F03F03122B48D16E4B93F843
:20614000343003F0F002502A24D91B09053B9B0000202A1892F83C10E1B1012901D1013089
:2061600016E002290FD192F83D1004290BD192F83E1092F83F3043EA0123402B28BF402367
:20618000F383338406E02A1892F83D2012B110449842DEDB032386F8253095F82C30012016
:2061A000337595F82D30737595F82E30B37595F82F30F375FFF7FCF94223514A8BF8003060
:2061C0000023B3833B8088F80030138066E020238BF8003001F0E4FD4A4B00221B6883F8A5
:2061E0002520E5E595F83530D80725D5CA0623D4B38B002B40F05C813888013080B2FFF76F
:20620000D7F99BF8003043F010028BF800203A881AB13A4A43F01203137001F0C1FD012354
:20622000B383082386F82530002386F827301122314B83F83520DCE098060DD595F83A2090
:2062400095F83B3043EA0223DAF800201A44CAF800203A88D31A3B80388848B1CA0607D4F4
:2062600099F8003043F0020389F80030FFF7A0F995F8362095F8373003EB0223328C9BB2F0
:20628000934202D8002B18BF1A4699F80030F2839B0700F00D811A4B00221A8001F080FD08
:2062A000164B1A78164B02F0200000F0FF0128B100221A8084F825201422B9E702F010005A
:2062C00000F0FF0540B119800123A383042384F8253084F82710AAE71988B1B1D60748BFD3
:2062E000A583A28B82B9E28B914288BF1A801B88A3830AE05C27002068270020502B00204D
:20630000742D0020602B00201A80002384F827306D4B1B68CAF800306C4B1B882BB1A38BF0
:206320001BB13C333B80182207E0694B1B789D0740F1BE803C233B801022664B83F835201F
:2063400059E099F80030DC0740F1B280002386F825305F4B10221A7001F022FDA8E0388849
:2063600008B1FFF725F995F8353013F001030FD099F80030D80745BF072386F825300623AE
:20638000002346BF86F82630B38386F8253016E099F80020D1071BD5052286F82520B38369
:2063A00086E0388808B1FFF703F995F83530DA070ED5072386F82530002386F82630012041
:2063C000FFF7F6F8102389F8003001F0E9FC0DE03B885BB96CE099F80030DB0768D5072305
:2063E00086F82530002386F8263061E0102385F835303C233B80374B502283F83420237D00
:20640000344D85F83030637D05F1180685F83130A37D85F83230E37D85F83330237E85F8EF
:206420002C30637E85F82D30A37E85F82E30E37E85F82F30238A2B85638A6B8594E80F0047
:2064400086E80F0005F108003146FEF713FD94F8253003F0100303F0FF022BB1002385F8EE
:20646000373085F8363004E0402385F8362085F83730184C0623A371174B1B79E3713B8826
:20648000283B1A1263710023227184F83B3084F83A30238706F0E2F9C04320870D4B602217
:2064A0001A7000225A705A80094B00221A7007E00A4A002313700A4A3B801370044A137048
:2064C00003B0BDE8F08F00BF58270020742D0020502B002068270020E82500204D200020C2
:2064E0004E2000200D4A0346106828B10C4A121A9142A8BF114604E0B1F56B7FA8BF4FF4EC
:206500006B71002909DD074A8342118005D08AB200B90548194605F085BC704758270020E7
:20652000502B0020742D0020A427002010B5044640B101F075FE044B2146BDE81040186885
:2065400003F012BD10BD00BF3C01002008B503F0EFFE034B03491868BDE8084003F04CBCF1
:206560003C0100202D65000070B51E460C4B04469DF810201868059B03F06CFC054668B15E
:2065800020462B4604F1100250F8041B904243F8041BF9D16E74284601F042FE284670BDA4
:2065A0003C010020024B0146186806F0DBBF00BF3C01002070B50C4D0646286803F030FC45
:2065C000044666B9002070BD20463146102205F0F7FB38B12146286806F08CFF0446002C38
:2065E000F2D1EFE7204670BD3C010020024B0146186806F09EBF00BF3C01002070B505461F
:2066000010200C4603F0EAFD0849064606F0BFFF58B930462946224603F028FE3046294671
:206620002246BDE8704001F0D1BD70BDA4E300000C4AB82303FB0022002330B553821A46DC
:20664000094CE1188D782DB11C5D844202BF00248C70013240F24C5171338B42F0D110465F
:2066600030BD00BFD41100205F20002008B5064801F002FA054B01221A70FD2100225A70CB
:206680009970DA7008BD00BFD56800005520002010B513780446087A83F0020398421DD1F5
:2066A000487A5378984219D1887A9378984215D1C87AD378984211D1087B137998420DD1AC
:2066C000487B5379984209D1887B9379984205D1C87BD379984201D103201BE00B890F4A72
:2066E0006BB94B89B3F57F4F09D18B89FE2B06D11368C989022023F8021B13600AE013683F
:2067000051F8080F083343F8080C486843F8040C13600120A040C0B210BD00BFC011002031
:2067200010B50F4C0220A17903F03EFDA379112B01D0062B05D1238D618D9942A8BF194660
:2067400008E03A2B05BF94F8281094F82930002143EA01210120BDE8104003F025BD00BF65
:206760006827002010B5084C01462378012B08D1A01C082205F024FB00280CBF20460020F7
:2067800010BD002010BD00BF5520002008B50146102003F017FD044B04489B680021984712
:2067A000BDE80840FCF7D4B814DE0000B167000010B508460C461146FFF720FF044B1B68C0
:2067C00013B19B6820469847024B1C6010BD00BFD0110020CC110020F8B505460023114AE4
:2067E000712404FB0324A278B2B9617003F006FC26460D4F0D4A3B7806F8035BC01A15680E
:20680000A0701D4403F0FAFB3A782946821A304605F008FBA078F8BD01330C2BDFD14FF0CD
:20682000FF30F8BD5F200020AB250020C41100202DE9F8434FEA1219B9F10F0F80461D464A
:2068400002F00F040BD00F2C05D1B9F1000F0AD11024274619E0B9F1000F09D004E00F2C68
:206860004FF0100900D1102440464A4605F0DAFA09EB04020F2A274606DC08EB090000213D
:20688000C2F1100205F0A8FBBCB1114DC7F110002E6840443146224605F0C4FA022C08D155
:2068A000B9F10A0F9FBFFF2388F80B30FE2388F80C3034442C60BDE8F883B9F1000F05D04B
:2068C00040462946BDE8F84305F07DBFBDE8F883C01100202DE9F04F8E4E8F4D002387B03A
:2068E00033702B70044603F005FC03F099FB8B4A8B4B126818608DE8600099460AB1FFF793
:206900000FFF04A80CB9874900E0214606F03AFE854B864E1A8803933E2A40F20182D9F8E9
